:020000040800F2
:10000000D0F6012055030008E1B00008ED7B0008A0
:10001000DDB00008AD27000805D80008000000008A
:10002000000000000000000000000000F1C5000812
:10003000A54200080000000011B1000859C90008DD
:100040006F0300086F0300086F03000825B700085E
:100050006F0300086F0300086F0300086F030008B8
:100060006F0300086F0300086F0300086F030008A8
:10007000894100086F030008994100086F030008D8
:100080006F0300086F0300086F0300086F03000888
:100090006F0300086F0300086F0300086F03000878
:1000A0006F0300086F0300086F0300086F03000868
:1000B0006F0300086F0300086F0300086F03000858
:1000C0006F0300086F0300086F0300086F03000848
:1000D0006F0300087DD600086F03000825D70008CD
:1000E0006F03000855B600086F0300086F0300088F
:1000F0006F0300086F0300086F0300086F03000818
:100100006F030008CDB700086F0300086F030008F5
:100110006F0300086F03000849CA00086F03000856
:100120006F0300086F030008A9410008B9410008E7
:100130006F030008214300086F0300086F030008E5
:100140006F0300086F0300086F0300086F030008C7
:100150006F030008C9410008D94100086F03000877
:100160006F0300086F0300086F0300086F030008A7
:100170006F0300086F0300086F0300080000000011
:100180006F0300086F03000800F002F800F0B8F8F1
:100190000AA090E8000C82448344AAF10107DA45E2
:1001A00001D100F0ADF8AFF2090EBAE80F0013F07C
:1001B000010F18BFFB1A43F00103184770F1050047
:1001C00090F105000A444FF0000C10F8013B13F0C9
:1001D000070408BF10F8014B1D1108BF10F8015BA0
:1001E000641E05D010F8016B641E01F8016BF9D193
:1001F00013F0080F1EBF10F8014BAD1C0C1B09D1EA
:100200006D1E58BF01F801CBFAD505E014F8016B5B
:1002100001F8016B6D1EF9D59142D6D370470000ED
:100220000023002400250026103A28BF78C1FBD8FF
:10023000520728BF30C148BF0B6070476E2900F0DD
:100240004184702900F09D8566292EF093866529EA
:100250002EF0908667292EF08D8661292EF08C86EF
:1002600003681B0A28BF41F08001692900F0EE8372
:10027000642900F0EB83752900F0E8836F2900F012
:100280002B85782900F06985E92900F0C584E429E7
:1002900000F0C284F52900F0BF84EF2900F0288522
:1002A000F82900F068850368DB0928BF41F0800168
:1002B000632901F03983732901F03E83E32901F0BA
:1002C0004983F32901F04E83002070471FB52EF0BB
:1002D0003CFE9DE8030000F015FB00F0BCF900F0C7
:1002E000F1FA0400002000212DF0BCFE401C6060EB
:1002F000002000212DF0CCFEE0601FBD10B510BD28
:1003000001F0D0FB1146FFF7E1FF1BF001FE01F009
:100310001DFF03B4FFF7F2FF03BC0DF00BFB000061
:100320000B49D1F800C04A685CF8043B10681844D7
:1003300042F8040B8C4528BFA1F1DC0C8A4228BF8F
:10034000A1F1DC02C1F800C04A6020F00040704713
:100350001C0200200948804709480047FEE7FEE7E5
:10036000FEE7FEE7FEE7FEE7FEE7FEE7FEE7FEE765
:1003700004480549054A064B7047000035CA000885
:1003800089010008D0DE0120D0F60120D0E601204E
:10039000D0E601207047000010B500F093FA001D70
:1003A00010BD00BFC1DC020070B5064600F086FA41
:1003B000056806F10B0020F00704B4429CBF002042
:1003C00070BD2B466A68BAB11068A04210D304F120
:1003D000080188423CBF5068586007D35168101923
:1003E00041601168091B016058601460101D70BDE8
:1003F00013465268002AE7D12146284600F06EFADB
:100400000028DED170BD70B50446051F00F056FA15
:100410000068002C14BF446870BD002C18BFAC42AB
:100420003CBF20466468F8D301680A18AA4218BF86
:10043000456003D12A6805461144016028684119C6
:10044000A1421CBF6C6070BD61686960216808448E
:10045000286070BD53EA020C00F069802DE9F04B72
:100460004FF00006002B1FBFB3FA83F503FA05F423
:1004700024FA05F65E4012BF1643B2FA82F502FA7C
:1004800005F4C5F120051EBF22FA05FC44EA0C0460
:10049000203556EA044C4FEA144418BF641C4FF050
:1004A00000084FF00009904271EB030C39D300298A
:1004B00019BFB1FA81F701FA07F6B0FA80F700FA2E
:1004C00007F6C7F120071EBF20FA07FC46EA0C0614
:1004D0002037B6FBF4FCA7EB0507103F07F01F0B16
:1004E000CBF120062CFA06F60CFA0BFB44BFB34600
:1004F0000026202FA4BF5E464FF0000B5BEA060CDF
:1005000008BF4FF0010B19EB0B0948EB0608ABFBDA
:10051000027C06FB02CC0BFB03CCC01B71EB0C0175
:10052000C1E70B46024641464846BDE8F08B13B58D
:10053000084318BF4FF0FF300146AFF30080BDE81D
:100540001C4070470FB4044910B503AA029800F08C
:10055000F3FA10BC5DF814FB383900200FB41CB559
:10056000084B06AA7B4469460090059800F0C3FA40
:1005700004460020694600F0D1FA20461CBC5DF814
:1005800014FB0000B50500007CB51D4616460C00A6
:10059000009001D02044401E074B7B442A46694608
:1005A0000190304600F0A7FA05461CB100206946CC
:1005B00000F0B4FA28467CBD890500002DE9F0471B
:1005C00091460F4680460446002614F8015B2DB183
:1005D000FFF7E2FE0068405DC007F6D12B2D02D088
:1005E0002D2D18D0641E4A463946204600F098FC4E
:1005F00027B13968A14201D1C7F800804FF0020449
:1006000071050BD54042002803DD00F05FF904605E
:10061000A007BDE8F08746F48066E4E70028F8DA32
:1006200000F054F904606FF00040F2E70B4910B598
:10063000A1F17C020A4CC2E93712372106E000EB37
:10064000104342F82130074B00FB03400B1EA1F181
:100650000101F4DC10BD0120E8E70000BC0100202E
:10066000E119D666CD0D010040EA010310B59B07E4
:100670000FD1042A0DD310C808C9121F9C42F8D00C
:1006800020BA19BA884201D9012010BD4FF0FF30BD
:1006900010BD1AB1D30703D0521C07E0002010BDD3
:1006A00010F8013B11F8014B1B1B07D110F8013B5F
:1006B00011F8014B1B1B01D1921EF1D1184610BD40
:1006C00010B5431C02E010F8011B71B18107FAD18B
:1006D0004FF0013202C88C1A8C4314EAC211F9D0CF
:1006E000C01A0A0603D0C01E10BDC01A10BD0A04ED
:1006F00001D0801E10BD0902FCD0401E10BDCBB23F
:100700002AB101788B4203D0401C521EF9D100203F
:100710007047032A40F2308010F0030C00F015807F
:1007200011F8013BBCF1020F624498BF11F801CBF4
:1007300000F8013B38BF11F8013BA2F1040298BF59
:1007400000F801CB38BF00F8013B11F0030300F0C3
:100750002580083AC0F0088051F8043B083A51F867
:1007600004CBA0E80810F5E7121D5CBF51F8043B6C
:1007700040F8043BAFF30080D20724BF11F8013BDF
:1007800011F801CB48BF11F8012B24BF00F8013B41
:1007900000F801CB48BF00F8012B704710B5203A94
:1007A000C0F00B80B1E81850A0E81850B1E818501C
:1007B000A0E81850203ABFF4F5AF5FEA027C24BFEE
:1007C000B1E81850A0E8185044BF18C918C0BDE8D7
:1007D00010405FEA827C24BF51F8043B40F8043BA0
:1007E00008BF7047D20728BF31F8023B48BF11F855
:1007F000012B28BF20F8023B48BF00F8012B7047AF
:1008000002F0FF0343EA032242EA024200F00AB880
:1008100002F0FF0343EA032242EA024200F024B856
:100820004FF000020429C0F0128010F0030C00F019
:100830001B80CCF1040CBCF1020F18BF00F8012B97
:10084000A8BF20F8022BA1EB0C0100F00DB85FEA65
:10085000C17C24BF00F8012B00F8012B48BF00F831
:10086000012B70474FF0000200B5134694469646A0
:10087000203922BFA0E80C50A0E80C50B1F12001B3
:10088000BFF4F7AF090728BFA0E80C5048BF0CC061
:100890005DF804EB890028BF40F8042B08BF7047BF
:1008A00048BF20F8022B11F0804F18BF00F8012B31
:1008B00070477047704770477047000000487047A6
:1008C0002C02002000487047440200200048704776
:1008D00024020020704770477047704738B50446BF
:1008E0000A4600206946AFF30080002808BF38BDE3
:1008F00002460099204600F0BFFB012038BD0120D0
:1009000001F08AB8F8B5AFF30080054600200C4628
:10091000102000BF0646A819A0420DD932466946EC
:100920000020AFF30080070008BF01F075F80098C1
:10093000A04218BF0546C419FFF7C0FF056007466F
:10094000F01D20F007004619284600F00AF8B442CE
:1009500008BFF8BDA21B31463868BDE8F84000F07A
:100960008BBB00210160C0E9011070471020704767
:1009700010B5FFF7ABFF006810BD10B50446FFF7D8
:10098000A5FF046010BD70B5044685690068C10606
:1009900001D5302600E02026C00707D070BDD4E97D
:1009A000012130469047206A401C20626D1EF6D51A
:1009B00070BD70B5044685690078C00707D170BD69
:1009C000D4E9012120209047206A401C20626D1E3E
:1009D000F6D570BD09684A0501D540B27047C90512
:1009E000FCD500B2704709684A0501D5C0B270470E
:1009F000C905FCD580B2704770B50C460546012A82
:100A000005D02878800600D5EA69002302E001239A
:100A100005E05B1C934202D2E05C0028F9D1A86992
:100A2000E618C01AA861286A184428622846FFF709
:100A3000AAFF04E0D5E9012114F8010B9047B44264
:100A4000F8D32846FFF7B5FF70BD00002DE9F0414F
:100A50000646002410687529314616A510D0FFF708
:100A6000B9FF002802DA404213A507E031688A077F
:100A700001D512A502E0490704D511A5012401E022
:100A8000FFF7B1FF00210A2206F1240709E0B0FBBD
:100A9000F2FCB0FBF2F302FB1C0030307854184635
:100AA000491C0028F3D123462A463046BDE8F041D0
:100AB00000F04ABB000000002D0000002B000000E9
:100AC0002000000011680268006A530501D5087013
:100AD0000AE0D30501D5088006E0130603D5C21746
:100AE000C1E9000200E008600120704701694A1C6A
:100AF00002610878704700B58FB0CDE9013100215F
:100B0000059105497944CDE903101146684600F086
:100B100043F90FB000BD0000E5FFFFFF0A6802F8CF
:100B2000010B0A607047D1E900239A4202D2531C9C
:100B30000B60107070470000074B70B50D467B448A
:100B4000FFF7D9FF0446284600F03EFF10B14FF0F2
:100B5000FF3070BD204670BD5B3B01002DE9FF5F9B
:100B600015468A460446DFF8AC80F8440027D8E9E9
:100B700000103E46CDE9001010E03AF816106A4623
:100B800002A800F025FF411C07D02178890603D573
:100B9000E269391891420DD80744761C2078800606
:100BA00002D5E069B84205DDAE42E6DB3AF8160050
:100BB0000028E2D1A069C01BA0612046FFF7E3FE38
:100BC000D8E90010CDE90010002017E03AF818101D
:100BD0006A4602A800F0FCFEB0F1FF3F81460BD050
:100BE00000250DF1080B05E0D4E901211BF80500F3
:100BF00090476D1C4D45F7D308F10100B042804687
:100C0000E4DB206A384420622046FFF7D2FEBDE8CC
:100C1000FF9F0000F2E502002DE9F0418046D21D61
:100C200022F007020025D2E90002F52915A614D00A
:100C3000011E72F1000106DA0023D0EB030063EB22
:100C4000020211A608E0D8F800108B0701D50FA604
:100C500002E0490701D50EA601251146002408F13E
:100C6000240704E000F022FA30323A55641C50EABE
:100C70000102F7D12B46324621464046BDE8F041FD
:100C800000F062BA000000002D0000002B00000000
:100C90002000000030B4002100F1240408E002F03C
:100CA0000705D208303542EA4372DB086554491C17
:100CB00052EA0305F3D10468002310A2250708D5E2
:100CC00004F020040C4304D0C46901230CA2641E68
:100CD000C46130BC00F038BA10B504462146106833
:100CE000FFF781FE02462046BDE810400023D1E711
:100CF000D21D22F00701D1E90023CBE7000000005C
:100D000030000000F0B40D460188090502D5214CE1
:100D10007C4402E01F4C7C440E34002100F1240688
:100D200008E002F00F071209E75D42EA03721B09AF
:100D30007754491C52EA0307F3D1027800231207C3
:100D400004D5702D06D009B1022311342246F0BC1F
:100D500000F0FAB901231034F8E770B504460D46E7
:100D600021461068FFF73FFE024629462046BDE8AF
:100D700070400023C6E7D21D22F00703D3E9002309
:100D8000C0E70368126843F0200303600823C361CF
:100D90000023B7E754E402002DE9F05F89460446DA
:100DA0004FF0000ADFF874B1FB44C0F820A02046E1
:100DB000E1688847002874D0252806D0D4E90121AD
:100DC0009047206A401C2062F1E700265F462046DB
:100DD000E16888472028054607DB312D05D27819C0
:100DE00010F8200C08B10643F1E7B00701D526F052
:100DF0000406C4F81CA00027C4F818A02A2D09D0A6
:100E000028462DF094F838B304EB8708303DC8F835
:100E1000185019E059F8041B204604EB8702916131
:100E2000E1688847012F054618D1E069002820DADB
:100E300026F020061DE0D8F8180000EB800005EB36
:100E400040003038C8F818002046E1688847054659
:100E50002DF06DF80028EED1012F0AD02E2D08D1EB
:100E60002046E16888477F1C0546022F46F0200691
:100E7000C4DBA069002803DA404246F00106A06105
:100E8000F00701D026F010066C2D0BD0682D09D08C
:100E90004C2D39D06A2D35D0742D35D07A2D33D0E4
:100EA00016E038E0E1682F4620468847B8420546FC
:100EB00009D16C2F26D04FF48060E16806432046AC
:100EC0008847054604E06C2F1AD04FF48070064323
:100ED0000DB3A5F14100192802D8203546F400666B
:100EE0004A462946204626604E46FFF7A7F980B1BC
:100EF00001280BD0F61D26F0070000F1080956E77F
:100F00004020E4E78020D8E70020D6E706F1040976
:100F10004DE7284652E7206ABDE8F09FE4E302006F
:100F20002DE9F05F824615468B4600270AF1010441
:100F3000B9460078302801D09DB113E014F8010BB8
:100F40000127782803D0582801D045B10AE00DB117
:100F5000102D07D1002714F8010B102502E00825F9
:100F600000E00A250026B0460EE005FB080005FB60
:100F700006F101271FFA80F801EB1046B6F5803F15
:100F800000D3B94614F8010B294600F0EFFC002805
:100F9000EBDABBF1000F05D00FB1641E00E0544640
:100FA000CBF80040B9F1000F06D0FFF78FFC02210B
:100FB0000160C81EBDE8F09F48EA0640FAE700005D
:100FC0000FB40B0010B54FF000048AB00FA90091C8
:100FD0000E99CC60234C7C44234A7A44CDE90642E6
:100FE00000D004236FF00042CDE901321F4A7A4459
:100FF0006B460892024600202EF020F80AB010BC82
:101000005DF814FBF0B507464FF0FF301E4615465D
:101010000C463B4685B06A460091CDE90101314658
:101020000020049004A8FFF7CBFF04990346601842
:1010300025B109B1024600E022462A6000290ED0FF
:10104000002B02DD0099814209D03B466A463146B9
:10105000001B0094CDE9010404A8FFF7B1FF05B01F
:10106000F0BD0000AF090000C90900004501000003
:101070000048704724020020034640688C46002840
:1010800018BF88423CBF03464068F8D3186818442C
:10109000884207D00CF1030020F00700001D411A20
:1010A000521A0146081D0A60FFF7ADB930B5B0F11C
:1010B0000A0271F100034FEA900E4EEA817EB0EB16
:1010C0000E0061EB91014FEA101E4EEA017E10EB1B
:1010D0000E0041EB11114FEA102E4EEA016E10EB9B
:1010E0000E0041EB11214FEA104E4EEA014E10EB7B
:1010F0000E0041EB1141401841F100014FEAD000D0
:1011000040EA41704FEAD1014FEA810444EA907409
:1011100010EB800544EB01046D1944EB0404521BF1
:10112000A3414FF0000348BF0A3200D530BD401C38
:1011300041F1000130BD10B50446FFF72DF90068FC
:10114000005D00F0010010BD2DE9F0470D46994605
:101150009246044600F124080168880604D5E06937
:1011600021F01001216000E00120A84201DD471BB1
:1011700000E00027A1697A1902EB0900081AA061B2
:101180002078C00602D42046FFF7FDFB002608E0C9
:10119000D4E901211AF806009047206A401C761C09
:1011A00020624E45F4DB2078C0060AD52046FFF7C2
:1011B000EAFB06E0D4E9012130209047206A401C78
:1011C0002062381EA7F10107F4DC07E0D4E9012111
:1011D00018F805009047206A401C2062281EA5F1DF
:1011E0000105F3DC2046FFF7E4FB2078000602D57A
:1011F0000220BDE8F0870120FBE72DE9FF4F0C46F8
:101200001E464FF0FF378BB0D2E90001DDF8608059
:101210000A908A46C1F30A5505B93D4600210846A1
:101220004FF00000BAF1000F00F4400005DA00EBC7
:1012300080004FF4400101EA50004FEA9059B9F1A3
:10124000010F00DDB9460A9850EA4A000ED044F674
:101250001050A5F2FF3545432F14B8F1000F1ED0F2
:101260007542291E1EDDC9F100021CE0B8F1010F14
:101270004FF0000001D0302103E0F24305E021549B
:10128000401CB042FBDB30460022002121540B9968
:10129000C1F80880C1E900200FB0BDE8F08FBD1B88
:1012A0006D1CDEE74A4600DA694206A800F0DCFE63
:1012B00006AB93E8070003AB83E8070050460A99A2
:1012C0002AF08BFF8DE80700A0F500501F38009032
:1012D0000398002D0ADD42F21F014A46084400230C
:1012E00003A9039068462BF037FA09E0A0F50050F7
:1012F0004A461F38002303A9039068462BF056FA8C
:101300008DE807000004000C03D04FF0FF304108C7
:1013100000E01046B8F1000F03D0002200921546FD
:101320001EE0751E05D4FFF7C1FE303262556D1EFA
:10133000F9D5B3460122084302D000227F1C04E005
:101340002078302801D100227F1E002A099784D0FE
:101350001DE0112D07DAFFF7A9FE303262556D1C32
:1013600050EA0102F5D1084302D00098C8B10EE05E
:101370000021681E05E0235C625C63542254401E19
:10138000491C8142F7DBAB46A81B401E0990002098
:1013900004F80B000B98099AC0F80880C0E9002BEC
:1013A0007AE711264FF0000857E72DE9F04F8846FD
:1013B0000446D21D22F0070191B0D1E90001CDE928
:1013C0000A012BF03FFB02460B98C00F01D02D20E5
:1013D00007E02068810701D52B2002E0202101EAE7
:1013E000C000032A099001D0072A05DB03464146C5
:1013F000204600F07DFB0BE12078800601D5E069F6
:1014000000E00620B8F1650F814606D0B8F1660FFE
:1014100018D0B8F1670F70D131E00020B9F1110F89
:10142000009001DB112301E009F101030AAA01A9DF
:101430000CA8FFF7E2FEDDE90C70002609F10105BA
:10144000834647E001204B4600904FF000470AAA30
:1014500001A90CA8FFF7D1FEDDE90DB00C995D469E
:10146000002610B909F101000D18B9EB050003D4ED
:10147000C0F1FF3609F10105A5EB09002BE0B9F138
:10148000010F01DA4FF001090020B9F1110F0090AE
:10149000484601DD112300E003460AAA01A90CA871
:1014A000FFF7ABFEDDE90C704D4600268346207841
:1014B00000070AD4AB4500DA5D4601A8012D04DD22
:1014C000411911F8011C302907D04F4502DA17F1F4
:1014D000040F04DA012082460FE06D1EEEE7002FB4
:1014E00002DCED1B3E4403E0781CA84200DD7D1CBD
:1014F000B81B00F1010A4FF000472078000703D421
:10150000AA4501DB4FF0FF3A0021B7F1004F0DF182
:1015100043088DF8431024D002202B23002F01DA3A
:101520007F422D230A21021EA0F1010000DC5FB1E1
:1015300097FBF1FC97FBF1F201FB1C7C17460CF1C9
:10154000300C08F801CDEEE7A8F101000370218806
:10155000090501D5452100E06521A0F1010800F849
:10156000011C09980FA9A1EB0807FF1D00B101207C
:10157000411901EBEA70A1693844081A401EA061C4
:101580002078C00602D42046FFF7FDF9099828B15B
:10159000D4E901219047206A401C20622078C006CF
:1015A00022D52046FFF7EFF91EE0002E04DBB345FD
:1015B00002DD01A8805D00E03020D4E901219047E0
:1015C000206A401C2062761CAAF101005FEA000A32
:1015D0000AD1FFF777F9C0680168405CD4E90121BE
:1015E0009047206A401C2062281EA5F10105DCDC22
:1015F00007E0D4E9012118F8010B9047206A401C4C
:101600002062381EA7F10107F3DC2046FFF7D1F96D
:10161000032011B041E600002DE9F04F04460D46CD
:10162000D21D22F0070089B0D0E90097484639461C
:101630002BF008FA0246F80F01D02D2307E02068AE
:10164000810701D52B2302E0202101EAC0038DF898
:1016500020300BB1012000E00020032A824601D097
:10166000072A04DB2946204600F042FA3FE12078B1
:10167000800601D40D2500E0E569C7F30A560D2D5B
:1016800049DA00214FEA175B08464FF00000002FAF
:1016900000F4400007DA00EB80004FF4400100EB5B
:1016A000D07001EA60008115012901DD4FF0FF31A2
:1016B00000224FEA850CBCF1180F06D31346ACF19B
:1016C00018004FF08052C24003E04FF4801323FA19
:1016D0000CF30CF10C0CBCF1200F04D3ACF1200C7A
:1016E00009FA0CF001E007FA0CF000294FF000486D
:1016F00001DD18B90FE00ED140450CD319EB0209FA
:101700005F4121B9404502D19F4329EA0209BBEB61
:10171000175F00D0761C2088000502D57B487844EE
:1017200002E07A487844193808AA302302F80A30CF
:10173000037C0AF10101002E0AF1020A53546A46A1
:1017400002DC4FF0300101E04FF031014FF00108B1
:101750008DF8001002D0A6F2FF3603E059EA4701E7
:1017600000D06B4E002D02DC2178090704D54FF024
:1017700002082E218DF80110C44600210BE0C7F3AA
:1017800003433F01C35C491C6D1E02F80830052964
:1017900008F1010801DA002DF1DC00210CE000EB7A
:1017A0001973491C1B786D1E082902F808304FEA8E
:1017B000091908F1010801DA002DF0DC21688B0617
:1017C00002D516E0A8F10108E04505DD02EB0803AB
:1017D00013F8013C302BF5D0B8F1000F09DD02EB16
:1017E000080313F8013C2E2B03D1090701D4A8F1FB
:1017F0000108002D05DD3E2102F808106D1E08F1DC
:101800000108407C002E02F8080008F1010804DA03
:101810002D20764202F8080002E02B2002F8080092
:101820000A214FF47A70864208F101080BDB96FB1F
:10183000F0F3303302F8083096FBF0F308F10108BA
:1018400000FB136601E0642E0CDB642096FBF0F3D2
:10185000303302F8083096FBF0F308F1010800FB82
:10186000136601E00A2E06DB96FBF1F0303002F839
:10187000080008F1010896FBF1F001FB1060303020
:1018800002F80800A16908F1010808EB050202EB63
:101890000A00081AA0612078C00602D42046FFF78B
:1018A00072F8216A08AE01EB0A00206204E0D4E974
:1018B000012116F8010B9047BAF1010AF7D22078FE
:1018C000C00602D52046FFF75EF86E4609E016F81E
:1018D000010B3E280FD0D4E901219047206A401C1B
:1018E0002062B8F10108F2D22046FFF762F809B091
:1018F0000320BDE8F08F206A2844206203E0D4E989
:101900000121302090476D1EEBD3F8E7C9DB0200C0
:1019100002FCFFFF10B5436913B1AFF3008001E093
:10192000FFF76AF8012010BD127800F124010A7057
:1019300000224A700122EDE711684FF0FF32E9E71B
:1019400010B5436913B1AFF3008001E0FFF706F96A
:10195000012010BD128800F1240182840022C2847B
:101960000122EDE711684FF0FF32E9E73A2800D293
:10197000303820F02002412A01D3A2F137008842FA
:1019800001D34FF0FF307047426842B1016811F84F
:10199000013B23B1521EC0E90012184670470121D5
:1019A000C160881E704742685AB1C368016843B974
:1019B00083688B4205D0491E521CC0E900120020EA
:1019C00070474FF0FF307047007B00F08000704799
:1019D0002DE9F04116460C460546FEF7DDFC03688E
:1019E00093F80101012807D0FF2C12D8185D80B1AF
:1019F00001202C70BDE8F081D3F807013246214662
:101A000003F20713C7182846BC46BDE8F04100237F
:101A100060474FF0FF30EDE710B500F0A5FBBDE8E3
:101A2000104000F09CBB000030B44FF0013C50F877
:101A3000042B51F8043BCCFA52F4D51A20D1FCB94E
:101A400050F8042B51F8043BCCFA52F4D51A17D1B4
:101A5000B4B950F8042B51F8043BCCFA52F4D51A1F
:101A60000ED16CB950F8042B51F8043BCCFA52F467
:101A7000D51A05D1002CDAD030BC4FF000007047E9
:101A800029BAB1FA81F111F01801D1F12000844096
:101A9000F2D1CA40CB4012F0FF0213F0FF0330BC7A
:101AA000D01A70477546FFF7E3FAAE46050069465F
:101AB000534620F00700854618B020B5FEF758FCC5
:101AC000BDE820404FF000064FF000074FF000083F
:101AD0004FF0000BAC46ACE8C009ACE8C009ACE87C
:101AE000C009ACE8C00921F007018D46704700002D
:101AF0002DE9F0411F46044603260168072A01F438
:101B0000006004DB08B116A505E016A503E008B1E6
:101B100015A500E015A521F010002060A069C01EE9
:101B2000A0610FB1401EA0612046FEF72CFF4FB10F
:101B3000D4E9012138469047206A401C2062C01C2D
:101B4000206206E0206AFAE7D4E9012115F8010BCA
:101B50009047761EF8D22046FEF72BFFBDE8F081B5
:101B60004E414E006E616E00494E4600696E660041
:101B70002DE9FF4F06468BB00878FF2806D0491C98
:101B80002D2805D000244FF0000908E000200CE0CB
:101B90000124F8E709EB8903491C00EB43090878A5
:101BA000FF28F7D114B1C9F1000081461078002553
:101BB0002C46AA4629462D2801D02B2804D1521C98
:101BC0002D2813D0002082468B461078FF280FD096
:101BD0004FF0000C0A21521CA5FB017804FB018187
:101BE00005FB0C11C5194BEB0104EEE70120EAE7F8
:101BF000002108464FF00000BAF1000F02D000EBC0
:101C000080004008C0F38157012F01DD4FF0FF37FE
:101C10000E9955EA040009EB01080BD04FF00209B8
:101C200018F5FA7F16DA4FEACA70002F706008DDE7
:101C3000012007E04FEACA70C6E900B00FB0BDE866
:101C4000F08F00203060FEF741FEC0F800901821B0
:101C5000084616E0B8F5FA7F18DD002F02DAF748DB
:101C6000784401E0F6487844D0E90010C6E9001055
:101C700040EACA707060FEF729FEC0F80090142197
:101C800008460FB0BDE8F04F2DF071B900210846AD
:101C90004FF00000B8F10001099002DAC7F100022C
:101CA00000E03A4601DAC8F1000106A800F0DCF9CC
:101CB00006AB93E8070003AB83E8070044F23E005D
:101CC0005BEA04010090584604D144F21E012C4600
:101CD0005D460091210C0904014306D100992404BA
:101CE00044EA15442D041039009104F07F4101436A
:101CF00006D10099240244EA15642D0208390091A6
:101D000004F07041014306D10099240144EA15749E
:101D10002D01091F009104F04041014306D10099B3
:101D2000A40044EA9574AD00891E009104F00041BE
:101D3000084304D100986D196441401E00904FF093
:101D400001033A466846B8F1000FCDE9014503A901
:101D500002DD2AF040FD01E02AF013FDBAF1000F88
:101D600004460D4601D084F00044002108464FF09F
:101D70000000099940F2FF77484010F00C0F07D19E
:101D800024F00040284303D0C4F30A50B84212D1D3
:101D9000FEF79CFDC0F80090C4F30A50B8420AD187
:101DA000A8487844D0E90010C6E9001004F00041CA
:101DB0000843706042E7C6E900543FE72DE9FF4F52
:101DC0001F464FF0000A4FF0FF38454691B0D7E963
:101DD0000146CDF83CA0FEF775FDC0680168405C87
:101DE0001090B96912986D1C8847396A81468847F6
:101DF0000028F6D1B9F1FF3F0AD0002E24F4D064B8
:101E000011DDB9F12B0F08D0B9F12D0F0BD102E084
:101E1000404615B013E744F48064B96912986D1C0C
:101E20008847761E8146600504A901D52D2000E073
:101E30002B20002E01F1010B0DF130088DF8100060
:101E40003FDDB9F1690F08D0B9F1490F05D0B9F1FB
:101E50006E0F02D0B9F14E0F1CD13B4601A8009580
:101E600080E85002DDE912126FF002002DF0EAF86E
:101E7000C11CCED10EE0B96912986D1C884781460D
:101E80001398761E44F4007405600F98401C002ED1
:101E90000F9016DDB9F1300FEDD0B9F1780F02D007
:101EA000B9F1580F0DD10F9801280AD13B46CDE961
:101EB0000054DDE91212001F02962DF0C1F8C11C7A
:101EC000A7D1109989453ED144F0800406E01399CA
:101ED000681CAAF1010A44F400740860B9696D1C19
:101EE0001298761E884730288146F0D02BE0109952
:101EF000894505D1200603D4761E44F0800418E0FD
:101F000048462CF014F808B3761E0DF123029345D1
:101F1000A9F1300044F4007406D20BF8010B20063E
:101F200007D5AAF1010003E0200602D40AF101005E
:101F30008246A00502D51399681C0860B9691298F9
:101F40006D1C88478146002ED1DC53E0002E51DD08
:101F5000B9F1650F02D0B9F1450F4BD1A00549D5B4
:101F6000B9696D1C1298761E24F440748847002EBF
:101F700081460CDD2B2804D0B9F12D0F07D144F494
:101F80008074B96912986D1C8847761E8146E005F9
:101F900001D52D2100E02B2108F8011BCDF8008090
:101FA00021E0761E0DF13901884544F400740CD20D
:101FB000A9F1300010F0FF0088F8000002D100996C
:101FC000884509D908F1010806E0E00501D51E4859
:101FD00001E042F20F708246B96912986D1C884781
:101FE000814613980560002E04DD48462BF09FFFC4
:101FF0000028D6D1F96912988847FF2053468BF8FC
:10200000000088F8000000200A900B9004AA0CA998
:102010000AA8FFF7ADFDA00502D46FF00100F8E6B5
:1020200014F0240F12D0E0071CD13868DDE90A1241
:10203000031D3B600068C0E9001213E0F0D6050004
:10204000E2D60500A6D50500F1D8FFFF0AA968462B
:102050002BF05AFFE00705D13868009A011D39605E
:10206000006802602846D4E62DE9F047814616460E
:102070008AB0354878440DC88DE80D003248784460
:10208000801C03AC0DC884E80D0041F69B30084469
:10209000372190FBF1F290FBF1F5A5F1800501FBF2
:1020A00012041B3C02D56442012000E00020DFF84E
:1020B00098A080460027FA44AAF1BE0A0EE0E00785
:1020C0000AD03246684607EB470101230AEB81013B
:1020D0002AF06CFB8DE8070064107F1C002CEED109
:1020E000194F7F44AE3F19E0E80715D007EB041005
:1020F0000DF1180A90E80E008AE80E00C068F04260
:1021000001D1981908903246012306A903A82AF0A4
:102110004DFB03AB83E807006D10641C002DE3D179
:102120004FF0010332466946B8F1000F03A802D010
:102130002AF012FB01E02AF039FBC9E90001C9F8D5
:1021400008200AB0BDE8F08704D3020010B50446A9
:10215000AFF300802046BDE81040FEF7DAB8002853
:1021600001D00BF0E7BB704710B5012805D0002166
:1021700003A000F034F8012010BD09A1F8E7000029
:1021800053494752544D454D3A204F7574206F6660
:102190002068656170206D656D6F727900000000C8
:1021A0003A2048656170206D656D6F727920636FAC
:1021B0007272757074656400B2F120030AD5C2F1C1
:1021C000200301FA02F120FA03F341EA030100FAC5
:1021D00002F0704700FA03F14FF00000704770B54D
:1021E00005460C460A2000E06D1C0BF0A7FB35B13C
:1021F00028780028F8D102E0641C0BF09FFB14B192
:1022000020780028F8D1BDE870400A200BF096BB7A
:102210002DE9FF4F1F464FF03C0987B04FF00042B9
:10222000DDE9141001F10108DDF858A002EA405080
:102230000390002005908346054604460490B96942
:10224000461E08988847AAF1010A0290BAF1000FC9
:102250003BDD02982E2815D01021FFF787FB0028C0
:102260002EDB4FF0010B0599014317D0B9F1000F98
:102270000BDB4A46C117FFF79FFF05430C43A9F14B
:10228000040905E0012004900BE008B145F00105C8
:1022900001200590049820B9361D02E0049800B191
:1022A000361FB969089808F101088847BBF1000F8B
:1022B000AAF1010A0290C9D00999C1F80080C5E7C6
:1022C0000298702808D0502806D0F96908988847E5
:1022D000BBF1000F14D04FE0002002900120BBF1B1
:1022E000000F049009D0B969089808F101088847DF
:1022F000AAF10109B9F1000F07DCF96908988847CC
:102300006FF001000BB0BDE8F08F2B2804D02D2812
:102310000CD14FF0FF300490B969089808F101081A
:102320008847A9F10109B9F1000FE6DD411CE4D0AD
:102330000A21FFF71BFB0028DFDB029908F10108E7
:1023400001EB810100EB41000290B96908988847D0
:102350000A21FFF70BFB099AA9F10109B9F1000F56
:10236000C2F8008001DD0028E7DAF969089888479B
:102370000499029800FB016655EA040004D004F0B9
:102380004041090002D006E0039898E0A40044EA26
:102390009574AD00B61E04F00041080002D16D191D
:1023A0006441761E159810F0240F03D04FF00B09EE
:1023B0005C4803E04FF028096FF07D0082465645E7
:1023C00007DAAAEB06018944B9F1410F01DD4FF0AC
:1023D000410901200021A9F10102FFF7EDFE0246AB
:1023E00028400B462140084301D0012100E0002194
:1023F000501E029143F1FF3128402140084301D093
:10240000012000E000200299834651EA0B014FD0E1
:10241000002108464FF00000039900F4400039B154
:1024200000EB80004FF4400100EBD07001EA600047
:102430008015012802DD4FF0FF3000E013D0401C72
:1024400036D0029860B3BBF1000F0CD14A46012090
:102450000021FFF7B1FE28402140084301D00120B0
:1024600000E00020E0B101204A460021FFF7A4FE71
:10247000034640190A4661412D1A8C4111D3B9F126
:10248000400F09DD159810F0240F02D0AAF1340690
:1024900003E0AAF1170600E0761C00254FF0004487
:1024A00006E05B1E42F1FF3220EA030521EA020446
:1024B000CAF10100B04206DA1B49039808430190B3
:1024C000002000900EE0039AC4F3D321E80A0A43E7
:1024D000164940EA44500A433146CDE900026846B5
:1024E0002BF01BFD159810F0240F0BD01598C0078A
:1024F00015D13868DDE90012031D3B600068C0E9B2
:1025000000120CE002A869462BF0FEFC1598C007EB
:1025100005D13868029A011D3960006802604046A2
:10252000F0E6000002FCFFFF0000F07F0000F03F3B
:102530002DE9FF4F92461D4685B04FF00041DDE981
:10254000124BDDE914727F1E01EA4B50414940F005
:10255000FF4940EA0108002122F0200049280491A7
:1025600002D04E2828D04CE03BA0012607C88DE8B9
:102570000700A9690698641C88477F1E014606D497
:102580001DF8060018B121F0200181420BD0E96945
:1025900006988847032E34D0082E32D06FF0010001
:1025A00009B0BDE8F08F761C032E01D0082EE0D1D3
:1025B000601CCAF80000DCE7A9690698641C88471B
:1025C0007F1E2AD420F02000412826D1A969069830
:1025D000641C88477F1E20D420F020004E281CD188
:1025E000A9690698641C88477F1E48F4002849F4AE
:1025F0008009CAF8004001D4282806D0E969069865
:1026000088475FEACB7012D022E0A9690698641C63
:1026100088477F1E01D4002803DAE96906988847B5
:10262000BCE72928F1D1641CCAF80040E9E71BF097
:10263000240F07D028680499031D2B600068C0E9A7
:10264000001805E02868021D2A600068C0F80090A4
:102650002046A5E70000F07F494E46494E495459AF
:10266000000000000000000080B586B08DED040B76
:102670008DED021B029803999FED110B53EC102B6B
:102680002CF0F3FB70B1FFE7049805999FED0C0B5C
:1026900053EC102B2CF0E9FB20B1FFE70020019058
:1026A000009008E09DED040B9DED021B2AF07CFDDF
:1026B0008DED000BFFE79DED000B06B080BD00BF68
:1026C00000000000000000007047000080B50146D7
:1026D00044F64C70C2F2000004F06AF880BD0000BD
:1026E00080B544F64C70C2F2000004F073F8043870
:1026F00018BF012080BD000010B500F01BF80128B4
:102700001CBF012010BD44F64C70C2F2000004F062
:1027100045F9044608B1204610BD44F64C70C2F29B
:1027200000004FF4006103F039FF002818BF0124B6
:10273000204610BD81B001208DF803009DF80300F4
:1027400001B0704780B513460A46014644F64C7006
:10275000C2F2000004F096FA002818BF012080BDE4
:1027600080B543F63410C2F2000000680121002257
:102770001EF096F980BD000080B513460A4601465A
:1027800044F64C70C2F2000004F022FB002818BF8F
:10279000012080BD80B543F63410C2F2000000680D
:1027A000022100221EF07CF980BD0000FFE7FEE759
:1027B000B0B5CEB04D908DED4A0B4D9890ED160B07
:1027C0002AF0BEFE4D9880ED000B4D9890ED160B53
:1027D0002AF0EAFD4D9880ED020B4D98009090EDA7
:1027E000001B90ED020B51EC110B53EC102B2BF056
:1027F0005FFD0246009801920A46019942EC101BC7
:1028000080ED040B4D98029090ED000B53EC102BD3
:10281000104619462CF004F80246029803920A4624
:10282000039942EC101B80ED060B4D9890ED160BB2
:1028300053EC102B104619462BF07EFC41EC100B8C
:102840002AF07EFE8DED040B4D9890ED160B53ECA7
:10285000102B104619462BF06FFC41EC100B2AF0A0
:102860006FFE9DED041B51EC110B53EC102B2BF064
:10287000D7FF41EC100B4D9880ED080B4D9890ED73
:10288000000B9FEDFD1B53EC112B51EC100B07912E
:1028900006902BF0C5FF069A079B41EC100B51ECFC
:1028A000100B2BF0BDFF41EC100B51EC100B9FED0A
:1028B000F40B53EC102B399338922BF03DFC41EC88
:1028C000100B8DED480B9DED480B2AF09DFE8DED14
:1028D000460B9DED460B9FEDEC1B51EC110B53ECA1
:1028E000102B2BF0E5FC41EC100B8DED440B9DED16
:1028F000441B4D98089090ED1A0B51EC110B53ECC2
:10290000102B2BF019FC0246089809920A460999E7
:1029100042EC101B80ED0C0B9DED440B9FEDDC1B7E
:1029200053EC112B51EC100B2BF07AFF41EC110BF7
:102930009DED460B51EC110B53EC102B2BF0B8FC1A
:1029400041EC110B4D980A9090ED1A0B51EC110BC4
:1029500053EC102B2BF0F0FB0A9A034638988C4668
:1029600039994CEC103B82ED0A0B4D9A0B9292ED8B
:102970000A0B53EC102B2BF09BFC0B9A0346389858
:102980008C4639994CEC103B82ED100B4D9A0C9211
:1029900092ED0C0B53EC102B2BF08AFC02460C989A
:1029A0000D920A460D9942EC101B80ED120B4D98CA
:1029B0000E9090ED021B90ED0C0B51EC110B53ECB3
:1029C000102B2BF02DFF0E9A034638988C46399920
:1029D0004CEC103B82ED0E0B4D9A0F9292ED0E0BCC
:1029E00053EC102B2BF064FC02460F9810920A4611
:1029F000109942EC101B80ED140B4D9900203A9079
:102A0000C1F88C00C1F888004D98139090ED020B2E
:102A100051EC100B9FEDA00B53EC102B1293119265
:102A20002BF0FEFE119A129B84461398CDF850C0ED
:102A30008C4614994CEC101B80ED240B4D9815908E
:102A400090ED000B51EC100B2BF0EAFE02461598AE
:102A500016920A46169942EC101B80ED260B4D98F3
:102A6000179090ED100B90ED1E1B8DED3C1B9DF80B
:102A7000F70080F080008DF8F7003C983D9953EC0A
:102A8000102B2BF0CDFE0246179818920A46189983
:102A900042EC101B80ED280B4D98199090ED120B15
:102AA00090ED1C1B51EC110B53EC102B2BF0B8FECE
:102AB000024619981A920A461A9942EC101B80EDA8
:102AC0002A0B4D981B9090ED040B90ED2A1B51ECB6
:102AD000110B53EC102B2BF0A3FE02461B981C92FB
:102AE0000A461C9942EC101B80ED2C0B4D9A1D924E
:102AF00002F1B80002F18801A03201F04DF91D9AEF
:102B000005463A9829686B68D5F808C0D5F80CE0F6
:102B10002C696D69C2F8CC50C2F8C840C2F8C4E054
:102B2000C2F8C0C0C2F8BC30C2F8B8104D99C1F8A4
:102B3000D400C1F8D0004D9890ED080B8DED1E0B20
:102B400090ED1A0B9FEDD61B53EC112B51EC100B93
:102B50002BF066FE9DED1E0B41EC110B8DED201B45
:102B60002AF052FD9DED201B51EC110B53EC102B64
:102B70002BF056FE41EC100B4D9880ED360B4D9826
:102B80002B909FEDC90B53EC102B90ED060B90EDA5
:102B9000081B8DED221B90ED1A1B8DED261B51ECB1
:102BA000100B2BF03DFE389A399B41EC100B51EC89
:102BB000100B2BF0C1FA9DED220B41EC110B8DEDAA
:102BC000241B9FEDBB1B53EC112B51EC100B2BF076
:102BD00027FE9DED240B41EC110B53EC112B51EC16
:102BE000100B2BF0A9FA41EC100B51EC100B9FEDE0
:102BF000B20B53EC102B2BF013FE9DED260B41EC8A
:102C0000110B8DED281B9FEDAE1B53EC112B51ECDE
:102C1000100B2BF005FE9DED281B41EC100B51EC29
:102C2000110B53EC102B2BF087FA02462B982C92A9
:102C30000A462C9942EC101B80ED380B4D9890ED14
:102C4000340B80ED3A0B4D9890ED380B80ED3E0B38
:102C50004D9890ED360B80ED3C0B4FF2684EC0F670
:102C6000020EDEF80000DEF80410DEF80820DEF8C0
:102C70000C3000F015B800BF79B3C840F66B7BBFCD
:102C8000000000000000F03F00000020A654584162
:102C9000996E7E1328C9EF3F65DB57D1A71D133FFF
:102CA000DEF810C0DEF814E0CDF80CE1CDF808C174
:102CB000419340923F913E904D9800F1880100F180
:102CC000B8023EA82D9001F067F82D9A04462068BE
:102CD0006168A368D4F80CC0D4F810E06469439428
:102CE000CDF808E1CDF804C140933F913E904D9856
:102CF00000F1700110461DF0B3FD2D9904462068C7
:102D00006268A368D4F80CC0D4F810E064694394F6
:102D1000CDF808E1CDF804C140933F923E904D9824
:102D20002E90E83000F0A6FF2E99044620686268D5
:102D3000A368D4F80CC0D4F810E06469C1F8FC4072
:102D4000C1F8F8E0C1F8F4C0C1F8F030C1F8EC20E7
:102D5000C1F8E8004D982F90E8309DED4A0B00F047
:102D6000D3FF2F99044620686268A368D4F80CC08A
:102D7000D4F810E06469C1F8FC40C1F8F8E0C1F88B
:102D8000F4C0C1F8F030C1F8EC20C1F8E8004D986B
:102D900000F5A4713091B8300AF0C8FF01463098B0
:102DA00048223292FDF7FAFC4D9800F5A47033905A
:102DB0009DED4A0B9FED441B53EC112B51EC100B76
:102DC0002BF02EFD0246339831920A46319942EC9F
:102DD000101B1DF0FBFB329A01463398FDF7DEFC19
:102DE000389839994D9A349292ED0A0B53EC102B86
:102DF0002BF05EFA349A034638988C4639994CEC9D
:102E0000103B82ED100B4D9A359292ED0C0B53EC6A
:102E1000102B2BF04DFA0246359836920A46369919
:102E200042EC101B80ED120B4D98379090ED021B79
:102E300090ED0C0B51EC110B53EC102B2BF0F0FC24
:102E4000379A034638988C4639994CEC103B82ED02
:102E50000E0B4D9A3B9292ED0E0B53EC102B2BF078
:102E600027FA02463A980B463B9943EC102B81ED2A
:102E7000140B4D9991ED100B81ED420B4D9991ED95
:102E8000140B81ED460B4D990022C3F6F072C1F888
:102E90004421C1F840014EB0B0BD00BF00BF00BF2B
:102EA0005EC9E9E7065A41BEADBC87B4C9B7753FF4
:102EB000F25FFFF9A67ED8BE9D8026C2868F23C012
:102EC000B66822E83FD6C9BE000000000000E0BF9F
:102ED00070B5E6B065906491639200206290FFE760
:102EE0006298052837DCFFE76498629900EBC1001F
:102EF0001C9090ED001B659890ED020B51EC110BAE
:102F000053EC102B2BF08CFC02461C981D920A46A9
:102F10001D9942EC101B80ED000B6398629900EB49
:102F2000C1001E9090ED001B659890ED020B51ECD6
:102F3000110B53EC102B2BF073FC02461E981F92C2
:102F40000A461F9942EC101B80ED000BFFE76298C8
:102F500001306290C4E765980068012840F0008263
:102F6000FFE76598007CC00740B3FFE7649890EDE9
:102F7000000B659880ED120B649890ED020B65983C
:102F800080ED140B649890ED040B659880ED160BA2
:102F9000639890ED000B659880ED180B639890EDA9
:102FA000020B659880ED1A0B639890ED040B659801
:102FB00080ED1C0B659900200874FFE74FF2684E06
:102FC000C0F6020ECDF834E0DEF80000DEF80410A2
:102FD000DEF80820DEF80C30DEF810C0DEF8144011
:102FE0006194CDF880C15F935E925D915C90DEF854
:102FF0000000DEF80410DEF80820DEF80C30DEF801
:1030000010C0DEF814405B94CDF868C15993589213
:1030100057915690DEF80000DEF80410DEF8082024
:10302000DEF80C30DEF810C0DEF814405594CDF810
:1030300050C15393529251915090DEF80000DEF847
:103040000410DEF80820DEF80C30DEF810C0DEF8E0
:1030500014E0CDF83CE1CDF838C14D934C924B9142
:103060004A90659800F148015CA816909FEDB80B56
:103070008DED0E0B00F0CCFE9DED0E0B8646DEF8BE
:103080000000DEF80410DEF80820DEF80C30DEF870
:1030900010C0DEF814E0CDF884E1CDF880C15F9374
:1030A0005E925D915C90659800F1600156A8189061
:1030B00000F0AEFE8646DEF80000DEF80410DEF812
:1030C0000820DEF80C30DEF810C0DEF814E0CDF891
:1030D0006CE1CDF868C15993589257915690649815
:1030E00090ED000B8DED500B649890ED020B8DED83
:1030F000520B649890ED040B8DED540B639890ED9A
:10310000000B8DED4A0B639890ED020B8DED4C0B8F
:10311000639890ED040B8DED4E0B5C985D995E9A73
:103120005F9BDDF880C1DDF884E1CDF824E1CDF8C6
:1031300020C147934692459144906598119000F1C3
:10314000180244A850A915911DF08AFB119A1599EF
:10315000054628686B68D5F808C0D5F80CE02C69DE
:103160006D69D5629462C2F824E0C2F820C0D361D0
:10317000906165981290183000F032FD1299044663
:1031800020686268A368D4F80CC0D4F810E06469C1
:10319000CC62C1F828E0C1F824C00B62CA61886122
:1031A00050985199529A539BDDF850C1DDF854E183
:1031B000CDF80CE1CDF808C1419340923F913E908B
:1031C0006598139000F130023EA84AA91A911DF0AB
:1031D00047FB1399044620686268A368D4F80CC0C2
:1031E000D4F810E064694C64C1F840E0C1F83CC018
:1031F0008B634A6308636598149030309FED560BDB
:1032000000F082FD149B169A1A9906463068D6F88B
:1032100004C0D6F808E0F468356976695E641D6418
:10322000DC63C3F838E0C3F834C0186310461DF0FF
:1032300017FB1599189A054628686B68D5F808C0D9
:10324000D5F80CE02C696D6961956094CDF87CE14E
:10325000CDF878C15D935C9010461DF001FB169986
:10326000044620686268A368D4F80CC0D4F810E063
:1032700064695B94CDF868E1CDF864C158935792C6
:10328000569065981790303000F0AAFC179A18995C
:10329000054628686B68D5F808C0D5F80CE02C699D
:1032A0006D6955641464C2F83CE0C2F838C05363D9
:1032B000106365981990303000F092FC199A1A99B1
:1032C000054628686B68D5F808C0D5F80CE02C696D
:1032D0006D6955641464C2F83CE0C2F838C05363A9
:1032E000106365981B90303000F07AFC1B990446FF
:1032F00020686268A368D4F80CC0D4F810E0646950
:103300004C64C1F840E0C1F83CC08B634A63086379
:103310009DED500B659880ED120B9DED520B65985D
:1033200080ED140B9DED540B659880ED160B9DED13
:103330004A0B659880ED180B9DED4C0B659880ED60
:103340001A0B9DED4E0B659880ED1C0B69E200BFDA
:10335000535555555555B53F000000000000E03F5E
:1033600064996598026802EB420201EBC20111ED1B
:103370000C0B80ED1E0B64996598026802EB42020B
:1033800001EBC20111ED0A0B80ED200B64996598E9
:10339000026802EB420201EBC20111ED080B80ED65
:1033A000220B64996598026802EB420201EBC201AC
:1033B00011ED060B80ED240B64996598026802EB11
:1033C000420201EBC20111ED040B80ED260B649962
:1033D0006598026802EB420201EBC20111ED020B9B
:1033E00080ED280B63996598026802EB420201EBBD
:1033F000C20111ED0C0B80ED2A0B639965980268F0
:1034000002EB420201EBC20111ED0A0B80ED2C0B25
:1034100063996598026802EB420201EBC20111ED6B
:10342000080B80ED2E0B63996598026802EB42024F
:1034300001EBC20111ED060B80ED300B639965982D
:10344000026802EB420201EBC20111ED040B80EDB8
:10345000320B63996598026802EB420201EBC201EC
:1034600011ED020B80ED340B4FF2684EC0F6020EE8
:10347000CDF818E0DEF80000DEF80410DEF80820D1
:10348000DEF80C30DEF810C0DEF814E0CDF8F4E021
:10349000CDF8F0C03B933A9239913890659901F19B
:1034A0007800903138AA00921DF0DAF904460098AD
:1034B00021686268A368D4F80CC0D4F810E064698D
:1034C0003D94CDF8F0E0CDF8ECC03A9339923891C4
:1034D0009FEDD50B8DED040B00F016FC0099044612
:1034E00020686268A368D4F80CC0D4F810E064695E
:1034F0003D94CDF8F0E0CDF8ECC03A933992389095
:10350000659A019202F11800783200F045FC0199A9
:10351000044620686268A368D4F80CC0D4F810E0B0
:103520006469CC62C1F828E0C1F824C00B62CA61AA
:1035300088616599029101F11800903100F050FB0B
:103540000299DDF818E0054628686A68AB68D5F886
:103550000CC02C696D69CD628C62C1F824C00B620D
:10356000CA618861DEF80000DEF80410DEF8082089
:10357000DEF80C30DEF810C0DEF814403794CDF8D9
:10358000D8C03593349233913290DEF80000DEF8E3
:103590000410DEF80820DEF80C30DEF810C0DEF88B
:1035A00014E0CDF8C4E0CDF8C0C02F932E922D9139
:1035B0002C90659901F17800C03132AA08921DF073
:1035C0004FF98646DEF80000DEF80410DEF8082029
:1035D000DEF80C30DEF810C0DEF814E0CDF8DCE0E8
:1035E000CDF8D8C03593349233913290659901F17A
:1035F000A80090312CAA03921DF032F903990546D8
:1036000008982A686B68D5F808C0D5F80CE02C69D2
:103610006D6931953094CDF8BCE0CDF8B8C02D93EC
:103620002C9200F0DDFA9DED040B04460898216809
:103630006268A368D4F80CC0D4F810E064693794C9
:10364000CDF8D8E0CDF8D4C034933392329100F065
:103650005BFBDDF818E0044620686168A268E36857
:10366000D4F810C064693794CDF8D8C0359334923B
:1036700033913290DEF80000DEF80410DEF8082006
:10368000DEF80C30DEF810C0DEF814402B94CDF8D4
:10369000A8C02993289227912690DEF80000DEF832
:1036A0000410DEF80820DEF80C30DEF810C0DEF87A
:1036B00014E0CDF894E0CDF890C0239322922191AC
:1036C0002090659800F1780100F1900226A80990F9
:1036D00000F062FB8646DEF80000DEF80410DEF83B
:1036E0000820DEF80C30DEF810C0DEF814E0CDF86B
:1036F000ACE0CDF8A8C02993289227912690659830
:1037000000F1A80100F1C00220A8079000F044FBDE
:103710000799099A054628686B68D5F808C0D5F856
:103720000CE02C696D6925952494CDF88CE0CDF8DA
:1037300088C02193209010461DF092F80446099805
:1037400021686268A368D4F80CC0D4F810E06469FA
:103750002B94CDF8A8E0CDF8A4C028932792269109
:103760009FED330B00F0D0FA0899099A05462868B6
:103770006B68D5F808C0D5F80CE02C696D692B95FD
:103780002A94CDF8A4E0CDF8A0C0279326906598A0
:103790000A90303000F000FB0A9904462068626805
:1037A000A368D4F80CC0D4F810E064694C64C1F884
:1037B00040E0C1F83CC08B634A63086365990B9194
:1037C00001F13000A83100F00BFA0B990446206893
:1037D0006268A368D4F80CC0D4F810E064694C6443
:1037E000C1F840E0C1F83CC08B634A630863659947
:1037F0000C9101F13000C03100F0F2F90C9904464F
:1038000020686268A368D4F80CC0D4F810E064693A
:103810004C64C1F840E0C1F83CC08B634A63086364
:10382000FFE766B070BD00BF565555555555E53F8D
:10383000000000000000E03F2DED028B92B09DEDF6
:10384000148B11908DED0E0B8DED0C1B8DED0A2B55
:103850008DED083B8DED064B8DED045B8DED026B20
:103860008DED007B9DED0E0B119880ED000B9DED15
:103870000C0B119880ED020B9DED0A0B119880ED59
:10388000040B9DED080B119880ED060B9DED060BCA
:10389000119880ED080B9DED040B119880ED0A0B3B
:1038A0009DED020B119880ED0C0B9DED000B119816
:1038B00080ED0E0B9DED140B119880ED100B1198FF
:1038C00012B0BDEC028B704780B5AEB02D902C913C
:1038D0002B922D982C9A90ED000B90ED021B8DED04
:1038E000001B90ED041B8DED061B51EC100B92EDAF
:1038F000000B92ED021B8DED021B92ED041B8DED72
:10390000081B53EC102B2AF08BFF9DED001B9DED47
:10391000020B41EC120B8DED042B51EC110B53EC0F
:10392000102B2AF07DFF9DED041B41EC100B51EC98
:10393000110B53EC102B2AF0FFFB9DED061B9DEDA8
:10394000080B41EC120B8DED0A2B51EC110B53ECD3
:10395000102B2AF065FF9DED0A1B41EC100B51EC7A
:10396000110B53EC102B2AF0E7FB41EC100B8DED03
:10397000240B2D982C9A90ED060B90ED081B8DEDE5
:103980000C1B90ED0A1B8DED121B51EC100B92EDF0
:10399000000B92ED021B8DED0E1B92ED041B8DEDC5
:1039A000141B53EC102B2AF03BFF9DED0C1B9DEDDF
:1039B0000E0B41EC120B8DED102B51EC110B53EC57
:1039C000102B2AF02DFF9DED101B41EC100B51EC3C
:1039D000110B53EC102B2AF0AFFB9DED121B9DED4C
:1039E000140B41EC120B8DED162B51EC110B53EC1B
:1039F000102B2AF015FF9DED161B41EC100B51EC1E
:103A0000110B53EC102B2AF097FB41EC100B8DEDB2
:103A1000260B2D982C9A90ED0C0B90ED0E1B8DED36
:103A2000181B90ED101B8DED1E1B51EC100B92ED31
:103A3000000B92ED021B8DED1A1B92ED041B8DED18
:103A4000201B53EC102B2AF0EBFE9DED181B9DED77
:103A50001A0B41EC120B8DED1C2B51EC110B53EC9E
:103A6000102B2AF0DDFE9DED1C1B41EC100B51ECE0
:103A7000110B53EC102B2AF05FFB9DED1E1B9DEDEF
:103A8000200B41EC120B8DED222B51EC110B53EC62
:103A9000102B2AF0C5FE9DED221B41EC100B51ECC2
:103AA000110B53EC102B2AF047FB41EC100B8DED62
:103AB000280B9DED240B2B9880ED000B9DED260B24
:103AC0002B9880ED020B9DED280B2B9880ED040BBD
:103AD0002B982EB080BD000080B5ACB02B902A9101
:103AE00029922A9800680690012007902A98006879
:103AF000089000200590FFE705980899884210DAA1
:103B0000FFE72998059900EBC10090ED040B06A88A
:103B100000EBC10080ED040BFFE705980130059034
:103B2000EAE72B9800682999086029990868886055
:103B300029989FED290B08F0F5FD00200490FFE780
:103B400004982B990968884242DAFFE70020039025
:103B5000FFE703982B994968884234DAFFE72B98EE
:103B6000049A00924368039902FB031200EBC2001F
:103B700090ED041B06A800EBC10090ED040B51EC86
:103B8000110B53EC102B2AF04BFE0A46009942EC25
:103B9000110B299800EBC100019090ED040B53EC40
:103BA000112B51EC100B2AF0C7FA02460198029231
:103BB0000A46029942EC101B80ED040BFFE70398C4
:103BC00001300390C5E7FFE7049801300490B7E7A0
:103BD00029982CB080BD00BF00000000000000004C
:103BE00080B588B007900691069890ED000B079875
:103BF000009090ED001B51EC110B53EC102B2AF0B0
:103C00009BFA0246009801920A46019942EC101B69
:103C100080ED000B069890ED020B0798029090ED56
:103C2000021B51EC110B53EC102B2AF085FA0246C3
:103C3000029803920A46039942EC101B80ED020B96
:103C4000069890ED040B0798049090ED041B51EC3E
:103C5000110B53EC102B2AF06FFA024604980592D0
:103C60000A46059942EC101B80ED040B079808B03A
:103C700080BD000080B588B007900691069890ED51
:103C8000000B0798009090ED001B51EC110B53ECCA
:103C9000102B2AF0D1FF0246009801920A460199A2
:103CA00042EC101B80ED000B069890ED020B07987C
:103CB000029090ED021B51EC110B53EC102B2AF0EB
:103CC000BBFF0246029803920A46039942EC101B7E
:103CD00080ED020B069890ED040B0798049090ED90
:103CE000041B51EC110B53EC102B2AF0A5FF0246DC
:103CF000049805920A46059942EC101B80ED040BCE
:103D0000079808B080BD000080B58AB009908DED9D
:103D1000060B0998009090ED000B9DED061B53ECEF
:103D2000112B51EC100B2AF07BFD024600980192FA
:103D30000A46019942EC101B80ED000B0998029095
:103D400090ED020B9DED061B53EC112B51EC100B6B
:103D50002AF066FD0246029803920A46039942EC55
:103D6000101B80ED020B0998049090ED040B9DED63
:103D7000061B53EC112B51EC100B2AF051FD02469F
:103D8000049805920A46059942EC101B80ED040B3D
:103D900009980AB080BD000080B584B003900291FC
:103DA0000192029890ED001B019890ED000B51ECF0
:103DB000110B53EC102B2AF0BFF941EC100B0398B8
:103DC00080ED000B029890ED021B019890ED020B24
:103DD00051EC110B53EC102B2AF0AEF941EC100B07
:103DE000039880ED020B029890ED041B019890ED72
:103DF000040B51EC110B53EC102B2AF09DF941EC04
:103E0000100B039880ED040B039804B080BD0000F4
:103E100080B584B0039002918DED000B029890ED77
:103E2000000B9DED001B53EC112B51EC100B2AF0F5
:103E3000F7FC41EC100B039880ED000B029890ED1D
:103E4000020B9DED001B53EC112B51EC100B2AF0D3
:103E5000E7FC41EC100B039880ED020B029890ED0B
:103E6000040B9DED001B53EC112B51EC100B2AF0B1
:103E7000D7FC41EC100B039880ED040B039804B0C1
:103E800080BD000081B0009001B0704781B000900B
:103E900001B070470000000010B5A6B02590249135
:103EA00023928DED200B8DED1E1B249890ED000BC1
:103EB00025980E9090ED041B51EC110B53EC102B38
:103EC0002AF03AF902460E980F920A460F9942ECF0
:103ED000101B80ED040B239890ED000B259810909B
:103EE00090ED0A1B51EC110B53EC102B2AF024F926
:103EF0000246109811920A46119942EC101B80ED6F
:103F00000A0B249890ED020B2598129090ED061B59
:103F100051EC110B53EC102B2AF00EF902461298BB
:103F200013920A46139942EC101B80ED060B23985E
:103F300090ED020B2598149090ED0C1B51EC110B99
:103F400053EC102B2AF0F8F80246149815920A4602
:103F5000159942EC101B80ED0C0B249890ED040B8E
:103F60002598169090ED081B51EC110B53EC102B7B
:103F70002AF0E2F80246169817920A46179942EC80
:103F8000101B80ED080B239890ED040B25981890DA
:103F900090ED0E1B51EC110B53EC102B2AF0CCF8CA
:103FA0000246189819920A46199942EC101B80EDA6
:103FB0000E0B25981A9090ED000B9DED201B53ECF5
:103FC000112B51EC100B2AF0B7F802461A981B92ED
:103FD0000A461B9942EC101B80ED000B25981C90A3
:103FE00090ED020B9FED661B53EC112B51EC100B67
:103FF0002AF0A2F802461C981D920A461D9942EC2E
:10400000101B80ED020B259890ED000B1E9A1F9B54
:1040100051EC100B2AF04CFF002840F0AF80FFE776
:104020002598019090ED020B90ED041B51EC110BC3
:1040300053EC102B2AF03CF90246019802920A46F2
:10404000029942EC101B80ED040B2598039090ED33
:10405000020B90ED061B51EC110B53EC102B2AF0C8
:1040600027F90246039804920A46049942EC101B71
:1040700080ED060B2598059090ED020B90ED081B46
:1040800051EC110B53EC102B2AF012F90246059853
:1040900006920A46069942EC101B80ED080B259803
:1040A000079090ED020B90ED0A1B51EC110B53ECB5
:1040B000102B2AF0FDF80246079808920A46089944
:1040C00042EC101B80ED0A0B2598099090ED020B35
:1040D00090ED0C1B51EC110B53EC102B2AF0E8F86F
:1040E000024609980A920A460A9942EC101B80ED92
:1040F0000C0B25980B9090ED020B90ED0E1B51ECE4
:10410000110B53EC102B2AF0D3F802460B980C92AB
:104110000A460C9942EC101B80ED0E0BDDF894C0A2
:104120000CF188000CF140010CF158020CF128034D
:104130000CF1100CEE46CEF800C008F01FFD2598DB
:104140000D9000F17001883017F05AFB0D9904466C
:1041500020686268A368D4F80CC0D4F810E06469E1
:10416000C1F88440C1F880E0C1F87CC08B674A6721
:1041700008672599012081F8D000FFE726B010BD1F
:10418000000000000000F03F80B544F66460C2F219
:10419000000000F00DFC80BD80B544F6C460C2F2A2
:1041A000000000F005FC80BD80B544F6A450C2F2CA
:1041B000000000F0FDFB80BD80B544F6E440C2F293
:1041C000000000F0F5FB80BD80B544F64450C2F21B
:1041D000000000F0EDFB80BD80B544F60460C2F243
:1041E000000000F0E5FB80BDD0F800C06FF00F02CA
:1041F0004AF6AB2352FA8CF2CAF6AA230146A2FB76
:104200000330000905A31B5C40F2FF302CEA0000DC
:104210005F2A88BF0430C1E91603704700061016F4
:10422000000610168269816AB2F5005F06D06AB98D
:10423000022912D0012914D0D1B90EE0032917D8D0
:10424000DFE801F0020B020F0120704703293CBF99
:10425000012070471CBF00207047C06AC0F3006097
:104260007047C06AA0F1C070B0FA80F04009704792
:104270000020704780B5D0F800C0D0F808E0DCF826
:104280000000BEF1400F20F48020CCF8000008466A
:10429000CCF8043004BF10460A46CCF80800CCF82D
:1042A0000C2080BD70470000006841F218014258A0
:1042B00042F0020242507047006841F21801425831
:1042C00042F400524250704781B040F2B800C2F24E
:1042D0000000006844F6D351C1F26201A0FB010165
:1042E000480A009000BF0098411E00280091F9D1B3
:1042F00001B07047B0B582B004460020019020683C
:1043000041F21805415941F4801141514059019041
:10431000FFF7DAFF01982168485102B0B0BD0000F4
:1043200080B543F69470C2F20000806A0EF054F932
:1043300018B1FFE717F0CAF8FFE743F69470C2F22E
:104340000000036841F214024FF480319950016873
:104350004020885080BD0000818848F24002C4F2AD
:1043600002021160006850607047000070B50029BB
:1043700004461EBF4FF400604FF48041C4E90210B0
:104380002068D4E902ECE369026848F20F11CFF625
:10439000207111404FF40072002B08BF4FF4C0622F
:1043A00042EA0E02114341EA0C0101600568012056
:1043B00000F05EFC206840210560416045680120F6
:1043C00000F056FC20684FF641724560002585607C
:1043D000C56081691140803181618669012000F0EA
:1043E00047FC20688661C561C569012000F040FC7A
:1043F000206841F21801C561425843F62373CFF695
:10440000DE031A4042F0087242F00402425045585E
:10441000012000F02DFC206800F580518D6142F2F2
:1044200080014FF48055C0F2C1214151465901200D
:1044300000F01EFCA16920680129465107D100F552
:104440008050C16941F4803141F04001C16160692F
:10445000FFF782FF70BD000010B582B00446002057
:1044600001902068016841F004010160006801903A
:10447000FFF72AFF01982168086002B010BD000014
:1044800010B582B00446002001902068016841F018
:104490000801016000680190FFF716FF019821688C
:1044A000086002B010BD000081B0EFF3108072B65A
:1044B0000090FFE7FEE7000080B5002200F002F860
:1044C00080BD000080B543F6A43EC2F2000E9EF807
:1044D0000E30012B84BF012080BD9EF80E30844633
:1044E00000200EF803009EF80E300EEB8303C3F895
:1044F00004C09EF80E3073441A739EF80E20531CAD
:1045000030328EF80E300A7042F63A72A1F801206D
:10451000C87080BDB0B5B3F5804F034616D153F8CF
:1045200022C00020CCF6F0700CEA000E91E83100B9
:10453000D1F818C040EA0E0040EA0410C96840EA09
:10454000052040EA0C0040EA014101E06FF07041B3
:10455000002043F82210B0BD2DE9F04F83B00B6866
:10456000024650F8230001F1240B20F0010042F82C
:104570002300D1E90230D1E900CE01908869D1E968
:10458000049A0290C86BD1E9077600909BE8300846
:10459000D1F8308052F82C008021CFF6F07108401D
:1045A0004EEA0301082B08BF41F04001019B19436B
:1045B00041EA090141EA0A013943314321432943D0
:1045C00041EA0B01029B41EA08011943009B194390
:1045D0000143002042F82C1003B0BDE8F08F00002A
:1045E000F0B500EB82025068D1E902E400F0404CE3
:1045F000D1E90030D1E9045643EA0C03002743EA2D
:104600000010CFF6F07740EA0E20896907EB0555D8
:1046100040EA04402843FE36084340EA0661002091
:104620005160F0BD80B58AB009908DED060B8DED1F
:10463000041B8DED022B9DED061B42F21050C0F6BF
:104640000300009090ED000B51EC110B53EC102B7C
:104650002AF0E6F80246009801920A46019942ECD7
:10466000101B099981ED000B9DED041B90ED000BD3
:1046700051EC110B53EC102B2AF0D2F841EC100B3B
:10468000099880ED020B9DED020B099880ED040B5B
:1046900009990022C3F6E0724A6300200863099971
:1046A000CA63886309990022C3F6F0724A640864F9
:1046B000099B4BF2480CC3F6856CC3F84CC045F21D
:1046C0001611C0F671319964099BC3F854C019657D
:1046D0000999CA6588650AB080BD00000000000025
:1046E00080B58EB00D904FF4FA600A901CF060F91E
:1046F00044F28060C2F2000010F0CAF945F2C830FE
:10470000C2F200001BF0E6F840F64020C2F20100C1
:104710001AF098FC0A9940F62820C2F201000068BD
:104720001CF0DCFA00208DF833008DF83200FFE732
:10473000ADF6C80D40F6D830C2F20100CDF8E00861
:1047400000F11001684640F6C402CDF8E428CDF827
:10475000E818CDF8EC08DDF8EC08DDF8E818DDF82D
:10476000E42851F8043BCDF8D81840F8043BCDF8C4
:10477000DC08043ACDF8E428CDF8E818CDF8EC08C8
:10478000E9D1DDF8E038186859689A68DB681EF0EE
:10479000DBFD0DF6C80D0B900B98002800F0A980EA
:1047A000FFE744F28061C2F2000101F55A7001F5A1
:1047B000E2714FF4D272FBF7F1FFFFE744F2806041
:1047C000C2F20000D0F8DC05800868282FD8FFE787
:1047D00044F28060C2F200000390D0F8DC1501447E
:1047E00001F55A7100F20C50C8220292FBF791FFBA
:1047F000029A40F6D830C2F2010043F6B431C2F258
:10480000000101911EF0F6FC0199029A40F6402049
:10481000C2F2010045F2C833C2F2000319F08EFD66
:104820000399D1F8DC05C830C1F8DC05C6E744F2CD
:104830008061C2F200010020C1F8DC05C1F8D80592
:1048400081F8D50545F2C830C2F2000090ED100B9A
:104850009FED291B53EC112B51EC100B2AF005FB9B
:1048600068B9FFE744F27E61C2F2000101200870DE
:1048700044F28061C2F2000181F8D405FFE745F2FD
:10488000C830C2F20000006A012807D1FFE745F2F4
:10489000E461C2F2000101200870FFE745F2C8316F
:1048A000C2F2000191ED100B45F2E860C2F2000087
:1048B00080ED000B91ED120B45F20872C2F200027E
:1048C00082ED000B91ED140B43F6E051C2F20001B2
:1048D00081ED000B90ED000B9FED091B53EC112BAC
:1048E00051EC100B2AF0DDFA10B9FFE7FFE7FEE705
:1048F000FFE71DE700BF00BF000000000000000050
:10490000000000000000444070B5866D044600F0D1
:104910009DFF94F83510022925D105462068216CA9
:10492000026822F016020260426922F080024261AF
:1049300009B9A16C19B1016821F008010160016891
:1049400021F00101016000BF20680068C0070ED09F
:1049500000F07CFF401B0628F6D320206065032072
:1049600084F835000CE080206065012008E0E06DEF
:104970003F2101FA00F0B060012084F835000020EA
:10498000002184F8341070BD90F83510022909D147
:10499000052180F835100068016821F001010160EF
:1049A000002070478021416501207047406D7047AD
:1049B000F0B581B004460020009040F2B800C2F289
:1049C00000000268D4E9166048F2B5133768082180
:1049D000C1F64E3381403942A2FB03250CD0226838
:1049E00013685B0708D5136823F004031360B160F4
:1049F000616D41F00101616501218140394208D0BA
:104A000022685269120604D5B160616D41F002015D
:104A1000616504218140394208D0226812689207FA
:104A200004D5B160616D41F00401616510218140E0
:104A3000394215D020680268120711D5B1600268AA
:104A40000168520306D4C90506D4016821F00801A3
:104A5000016001E0080342D4216C09B12046884777
:104A6000E16D202000FA01F23A4244D02068036848
:104A7000DB0640D5B26094F835300268052B1ED1B4
:104A800022F016020260426922F080024261226C2A
:104A90000AB9A26C1AB1026822F0080202603F2033
:104AA0008840B060012084F83500216D0020002985
:104AB00084F8340040D02046884701B0F0BD01683A
:104AC000520310D4C90512D4016821F0100101600D
:104AD000012084F83500002084F8340007E0A16C40
:104AE0000029BBD1BCE7080301D4616C00E0E16B95
:104AF00009B120468847606DF0B1606DC00717D0DE
:104B0000052084F835002068A90A026822F0010215
:104B1000026000BF009A01328A42009202D8026805
:104B2000D207F7D1012084F83500002084F8340042
:104B3000E16C09B12046884701B0F0BD2DE9F04194
:104B4000044600F083FEC4B10546022084F8350017
:104B50000020216884F83400086820F00100086013
:104B600026683068C0070BD000F070FE401B052897
:104B7000F6D903212022032042E00120BDE8F08184
:104B8000306848F23F01CFF21001251D00EA010C08
:104B90002ECDD4E9050E41EA0C01114319432943F6
:104BA000D4E90778084340EA0E01606A39430428D3
:104BB00041EA080103D1D4E90B23114319433160C1
:104BC0007169042821F0070141EA00050CD1D4E9FC
:104BD0000A1045EA010538B12046FFF723FB18B15A
:104BE0000121402201200BE020467561FFF7FCFA0D
:104BF000E16D3F2202FA01F18160002201210020D3
:104C0000626584F83510BDE8F0810000B0B5044657
:104C100090F83400012828D0012084F83400A56DD4
:104C200094F8350001281DD1022084F835000020B9
:104C300060652046FFF71EFBE26D3F23206803FA04
:104C400002F2216CAA60026842F01602026019B1F9
:104C5000016841F008010160016841F00101016053
:104C60000020B0BD002084F834000220B0BD000058
:104C700080B582B00190BDF804000AF061F802B07E
:104C800080BD00002DE9F04390F845704FF0020C14
:104C9000012F33D04FF0010E80F845E080F844C07A
:104CA00081620BB3D0F818C05C1E01F1200500260C
:104CB0004FF0004844F2F459BCF1010F45F8208C44
:104CC00045F81C9C45F8182C08BF45F81C9CA642CA
:104CD0000F4606F1010638BF2F4645F8147C2035F3
:104CE000B34202F2F452E7D1026841F20C034FF0F2
:104CF000000CD15080F844E080F845C06046BDE823
:104D0000F08300002DE9F04190F845704FF0020C5F
:104D1000012F36D04FF0010E80F845E080F844C0F6
:104D2000C16223B3D0F81CC05C1E01F1200500262F
:104D30004FF480180DE000BFA6420F4606F10106B1
:104D400038BF2F4645F8147C2035B34202F2F452A6
:104D50000DD0BCF1000F45F8208C45F8182CEBD194
:104D600055F8207C47F4400745F8207CE4E70268CA
:104D700041F210034FF0000CD15080F844E080F86D
:104D800045C06046BDE8F08190F8451001294FF01C
:104D9000020133D04FF0010C80F845C080F8441078
:104DA000836A196800290AD41968C90509D41968E1
:104DB000890517D4816B01318163012117E001213D
:104DC00017E0816B4A1C0029826308BF03634363B9
:104DD0001968026BC1F30D4192680439C0E90F12E2
:104DE000002104E000220121C0E90C328163DA686D
:104DF0008262002280F844C080F84520084670474F
:104E0000F0B583B004460020002C02903FD094F807
:104E1000440028B9002084F84500204600F01CF921
:104E20000020019043F64400C4F2020001684FF4F0
:104E3000805641F480410160006800F48040019098
:104E4000019843F60400C4F20100016821F4000156
:104E500001602168226A03681A430260885940F0A1
:104E60000100885100F0F2FC054600BF206881591E
:104E7000C9070ED000F0EAFC401BB0F5FA7FF5D967
:104E80000325002084F8445084F845004CE00125B7
:104E90004AE0006920F01C0500F0D8FE4DF2003118
:104EA000CFF6CE614EF2BF120144C0F2E40291424D
:104EB00002D845F0080527E04FF24011CFF6E9513E
:104EC00047F63F020144C0F27D12914202D845F0FC
:104ED0000C0519E047F60011CFF66C4145F60022AB
:104EE0000144C0F2622291420ED341F60071CFF626
:104EF0000A2108444FF27F01C0F2FA2188428CBF98
:104F000045F0100545F004052068002105612046A4
:104F10004FF4004200F0ECFA48B12046012101258F
:104F2000FFF724FA84F84450284603B0F0BD40F659
:104F3000FF70FFF79DFE606818B300F087FC054620
:104F400002AE41F2893700BF20460121324600F00F
:104F5000F3F900F07BFC401BB84225D29DF8080015
:104F60004007F1D5204600214FF4805200F0C0FAEE
:104F700098B3204601210125FFF7F8F984F8445041
:104F8000D2E7D4E90201400840EAD10082B22046CB
:104F9000002100F0ADFA98B1204601210125FFF76C
:104FA000E5F984F84450BFE7204601210125FFF7C9
:104FB000DDF9002084F8445084F845000325B3E768
:104FC00040F6FF70FFF754FE204600210025FFF752
:104FD000CDF9012084F84400A6E700F037FC05462F
:104FE00002AE41F2893700BF20460121324600F06F
:104FF000A3F900F02BFC401BB84211D29DF8080029
:105000008006F1D502AA2046112100F095F998B149
:10501000204601210125FFF7A9F984F8445083E7D0
:10502000204601210125FFF7A1F9002084F8445012
:1050300084F84500032577E702984FF4006144F2B5
:10504000100201EA900110409042E16014BF4FF459
:1050500080400020A060B7E780B59AB01990FFE7C4
:10506000FFE70020139043F63000C4F2020001680D
:1050700041F001010160006800F0010013901398F5
:10508000FFE7FFE7FFE7FFE70020129043F630005D
:10509000C4F20200016841F001010160006800F003
:1050A000010012901298FFE7FFE7FFE7FFE70020FB
:1050B000119043F63000C4F20200016841F0010192
:1050C0000160006800F0010011901198FFE7FFE710
:1050D000FFE7FFE70020109043F63000C4F2020023
:1050E000016841F004010160006800F004001090C4
:1050F0001098FFE7FFE7FFE7FFE700200F9043F678
:105100003000C4F20200016841F00401016000684F
:1051100000F004000F900F98FFE7FFE7FFE7FFE7BD
:1051200000200E9043F63000C4F20200016841F006
:1051300004010160006800F004000E900E98FFE783
:10514000FFE7FFE7FFE700200D9043F63000C4F2D1
:105150000200016841F040010160006800F0400079
:105160000D900D98FFE7FFE7FFE7FFE700200C90A9
:1051700043F63000C4F20200016841F040010160D2
:10518000006800F040000C900C98FFE7FFE7FFE795
:10519000FFE700200B9043F63000C4F202000168E4
:1051A00041F040010160006800F040000B900B9856
:1051B000FFE7FFE7FFE7FFE700200A9043F6300034
:1051C000C4F20200016841F480710160006800F4DB
:1051D00080700A900A98FFE7FFE7FFE7FFE70020EB
:1051E000099043F63000C4F20200016841F00071FA
:1051F0000160006800F0007009900998FFE7FFE780
:105200000020089043F63000C4F20200016841F02B
:1052100080610160006800F0806008900898FFE7F6
:10522000FFE70020079043F63000C4F20200016857
:1052300041F000610160006800F00060079007988D
:10524000FFE7FFE7022003901490159000201690CE
:10525000032017900B2018900020C4F20200029047
:1052600014A9069100F010FA0298069904221492EB
:1052700000F00AFA029806998022149200F004FACB
:1052800003980699149040F60000C4F202000490BE
:1052900000F0FAF9049806991022149200F0F4F93B
:1052A000049806992022149200F0EEF906994FF422
:1052B0000060149041F60000C4F20200059000F076
:1052C000E3F9059806994FF40052149200F0DCF9C6
:1052D000059806994FF48042149200F0D5F906998A
:1052E000082014900120159040F60040C4F20200FE
:1052F00000F0CAF9FFE740F60040C4F202000821BE
:10530000002200F09DFAFFE73220FFF7B1FCFFE733
:1053100040F60040C4F202000821012200F090FA99
:10532000FFE73D2001900121002200F017FB0198CA
:1053300000F010FB1AB080BD70B5044690F8440030
:10534000822804BF022070BD822084F844002068B7
:1053500015460269238A02F01C0203F01F0361F361
:105360008A1242EAC3210131016100F06FFA064658
:1053700000F06CFA801BB0F5803F0CD22068006909
:10538000C007F5D12068406980B22860012084F808
:105390004400002070BD012084F84400002084F8FF
:1053A0004500032070BD0000B0B5044690F84500EC
:1053B00001284FF0020008BFB0BD012584F8455018
:1053C00084F844002046FFF75BF82046FFF744F8D6
:1053D0002046FEF78FFF2046FEF76EFF2046FEF7C1
:1053E00063FF002084F8445084F84500B0BD0000FD
:1053F00070B590F84520012A4FF0020249D00123F0
:1054000080F8453080F84420D1B3C36A1A68002A76
:1054100038D440F2F55291424FF0010210D34BF2D2
:105420000B05CAF60245A1FB055C4FEA9C2540F23C
:10543000F45405FB1414002C18BF02EB9C252A46DB
:1054400072B1012A27D11A686FF35F3142F04052DE
:10545000DD681A605960196841F000411960C56241
:10546000016841F214028A5852074FF0000205D534
:1054700041F20403194404230B610A60012303E091
:10548000012201E001221223002180F8443080F83B
:105490004510104670BD4FF60C25531ECFF6FF7514
:1054A00003FB051CC46A6FF35F3C002140F2F45E0D
:1054B00009E000BF2668E56846F000460131266035
:1054C0008A422C46CBD0256825F04055256019B975
:1054D000256845F0805525608B42C4F804E0E9D189
:1054E000256845F000552560C4F804C0E2E70000D7
:1054F000B0B5044690F84400422804BF0220B0BD75
:10550000422084F84400206892B20369258A03F09F
:105510001C0305F01F0561F38A1343EAC52103311B
:105520004261016100F092F9054600BF00F08EF97A
:10553000401BB0F5803F08D220680069C007F5D154
:10554000012084F844000020B0BD012084F844000C
:10555000002084F845000320B0BD000080B58EB067
:1055600000200D900C900B900A90099040F284203E
:10557000C2F20000006808B1FFE783E040F2842136
:10558000C2F2000101200860FFE70020089043F606
:105590003800C4F20200016841F0010101600068B6
:1055A00000F0010008900898FFE74FF48050079042
:1055B0000990022002900A90012003900B90032092
:1055C00004900C900C2005900D9041F20040C4F224
:1055D000020009A9069100F057F8DDF808C0039B06
:1055E000049A059806994FF6807ECDF824E0CDF810
:1055F00028C00B930C920D9041F20000C4F20200FF
:1056000000F042F8DDF808C0039B049A059806995B
:105610004FF4E66ECDF824E0CDF828C00B930C9241
:105620000D9040F60040C4F20200019000F02CF80A
:105630000198DDF808C0049B059A06994CF2030E08
:10564000CDF824E0CDF828C04FF0000CCDF82CC0E8
:105650000C930D9200F018F8DDF808C0039B049A33
:1056600005980699DDF81CE0CDF824E0CDF828C0B7
:105670000B930C920D9041F60000C4F2020000F072
:1056800003F8FFE70EB080BD2DE9F04F83B000F1C5
:105690003E4202F1FF724FEAB22241F60047019208
:1056A000C4F2020708224FF0010E00254FF0000A55
:1056B0004FF00008B84208BF072200920AE000BF7E
:1056C00008F101080AF1040AB8F1100F05F102050A
:1056D00000F0A4800C680EFA08FB14EA0B09EFD066
:1056E0004C6804F0030CACF1010EBEF1010F11D8AF
:1056F0000322876802FA05F6CA68B743AA403A430C
:1057000082604268C4F3001722EA0B0207FA08F726
:105710003A434260BCF1030F1CD0C26803238E6879
:1057200003FA05F7BA4306FA05F73A43BCF1020F4C
:10573000C2600FD16FF0030202EA580202440AF07D
:105740001C060F23176A03FA06F40B69A743B3403C
:105750003B431362026803234F68AB409A4307F050
:105760000303AB401A4317F4403F4FF0010E0260B1
:10577000A6D0002243F644030292C4F202031A6840
:1057800043F6004442F480421A601A68C4F20104ED
:1057900002F480420292029A28F003024FF6084B6C
:1057A0002244CFF6FF7B52F80B300AF00C070F268D
:1057B000BE4023EA060C019B009E072B38BF1E4605
:1057C00006FA07F747EA0C0342F80B30A2684B6869
:1057D00042EA090743F60C4CDE0258BF22EA0907E9
:1057E000A760C4F2010CDCF800209E0242EA09071F
:1057F00058BF22EA0907CCF8007062689E0342EAAB
:10580000090758BF22EA090767602268DB0342EAFA
:10581000090358BF22EA0903236051E703B0BDE83A
:10582000F08F00000069084018BF01207047000099
:10583000426902EA0103914341EA034181617047F1
:10584000002A08BF09048161704700004DF2E06042
:10585000C2F201000068704740F234104DF2E0617E
:10586000C2F20000C2F2010100780A681044086028
:105870007047000080B543F60040C4F202000168A2
:1058800041F400710160016841F4806101600168C8
:1058900041F480710160032000F070F80F2000F0E7
:1058A00005F800F02BF8002080BD0000B0B540F2F4
:1058B0003412C2F2000240F2B8011278C2F20001C2
:1058C0004FF47A730968B3FBF2F20446B1FBF2F1CC
:1058D000084601F075FC0F2C4FF001050CD858B9A3
:1058E0004FF0FF3021460022002500F037F840F24B
:1058F0003810C2F2000004602846B0BD80B582B006
:10590000FFE70020019043F64400C4F20200016862
:1059100041F480410160006800F4804001900198EA
:10592000FFE7FFE70020009043F64000C4F20200CA
:10593000016841F080510160006800F080500090E3
:105940000098FFE76FF001000F21002200F006F839
:1059500002B080BD80B507F057FF80BD70B514461A
:105960000D46064607F060FF2946224605F0BAFBC1
:105970000146304607F060FF70BD000080B507F0BB
:105980006DFF80BD81B02020C4F20E200121016096
:1059900047F20000C4F2000000680090009801B0D7
:1059A00070470000F0B581B00446007810F0050F94
:1059B0002CD06827C4F2472743F670060020C4F2B3
:1059C00002063860FFF742FF054600BF56F8700C2C
:1059D000000105D5FFF73AFF401B0228F6D93FE04A
:1059E000D4E90110000740EA81107061012038609D
:1059F000FFF72CFF054600BF56F8700C000105D4D8
:105A0000FFF724FF401B0228F6D929E02078800701
:105A10004FF0000057D543F67006C4F2020600901E
:105A200056F8300C47F2000740F0805046F8300C32
:105A300056F8300CC4F2000700F080500090009837
:105A4000386840F480703860FFF700FF054600BFFB
:105A50003868C00507D4FFF7F9FE401B0228F7D9C4
:105A6000032001B0F0BD306810F4407013D0E1683D
:105A700001F4407188420ED0306840F64061C4F2B3
:105A80004721012220F440700A6000220A60306041
:105A90003068C00719D1E06856F8681C4FF6FF431C
:105AA00000F4407221F4F811C0F6FF730340B2F520
:105AB000407F08BF194346F8681C31686FF31F30F8
:105AC00008433060002001B0F0BDFFF7BFFE05467F
:105AD00041F2883730688007DDD4FFF7B7FE401BFE
